{
  "contractName": "GoodsNFT",
  "abi": [
    {
      "inputs": [],
      "stateMutability": "nonpayable",
      "type": "constructor"
    },
    {
      "anonymous": false,
      "inputs": [
        {
          "indexed": true,
          "internalType": "address",
          "name": "owner",
          "type": "address"
        },
        {
          "indexed": true,
          "internalType": "address",
          "name": "approved",
          "type": "address"
        },
        {
          "indexed": true,
          "internalType": "uint256",
          "name": "tokenId",
          "type": "uint256"
        }
      ],
      "name": "Approval",
      "type": "event"
    },
    {
      "anonymous": false,
      "inputs": [
        {
          "indexed": true,
          "internalType": "address",
          "name": "owner",
          "type": "address"
        },
        {
          "indexed": true,
          "internalType": "address",
          "name": "operator",
          "type": "address"
        },
        {
          "indexed": false,
          "internalType": "bool",
          "name": "approved",
          "type": "bool"
        }
      ],
      "name": "ApprovalForAll",
      "type": "event"
    },
    {
      "anonymous": false,
      "inputs": [
        {
          "indexed": false,
          "internalType": "uint256",
          "name": "_fromTokenId",
          "type": "uint256"
        },
        {
          "indexed": false,
          "internalType": "uint256",
          "name": "_toTokenId",
          "type": "uint256"
        }
      ],
      "name": "BatchMetadataUpdate",
      "type": "event"
    },
    {
      "anonymous": false,
      "inputs": [
        {
          "indexed": false,
          "internalType": "uint256",
          "name": "_tokenId",
          "type": "uint256"
        }
      ],
      "name": "MetadataUpdate",
      "type": "event"
    },
    {
      "anonymous": false,
      "inputs": [
        {
          "indexed": true,
          "internalType": "address",
          "name": "from",
          "type": "address"
        },
        {
          "indexed": true,
          "internalType": "address",
          "name": "to",
          "type": "address"
        },
        {
          "indexed": true,
          "internalType": "uint256",
          "name": "tokenId",
          "type": "uint256"
        }
      ],
      "name": "Transfer",
      "type": "event"
    },
    {
      "inputs": [
        {
          "internalType": "address",
          "name": "to",
          "type": "address"
        },
        {
          "internalType": "uint256",
          "name": "tokenId",
          "type": "uint256"
        }
      ],
      "name": "approve",
      "outputs": [],
      "stateMutability": "nonpayable",
      "type": "function"
    },
    {
      "inputs": [
        {
          "internalType": "address",
          "name": "owner",
          "type": "address"
        }
      ],
      "name": "balanceOf",
      "outputs": [
        {
          "internalType": "uint256",
          "name": "",
          "type": "uint256"
        }
      ],
      "stateMutability": "view",
      "type": "function",
      "constant": true
    },
    {
      "inputs": [
        {
          "internalType": "uint256",
          "name": "tokenId",
          "type": "uint256"
        }
      ],
      "name": "getApproved",
      "outputs": [
        {
          "internalType": "address",
          "name": "",
          "type": "address"
        }
      ],
      "stateMutability": "view",
      "type": "function",
      "constant": true
    },
    {
      "inputs": [
        {
          "internalType": "address",
          "name": "owner",
          "type": "address"
        },
        {
          "internalType": "address",
          "name": "operator",
          "type": "address"
        }
      ],
      "name": "isApprovedForAll",
      "outputs": [
        {
          "internalType": "bool",
          "name": "",
          "type": "bool"
        }
      ],
      "stateMutability": "view",
      "type": "function",
      "constant": true
    },
    {
      "inputs": [],
      "name": "name",
      "outputs": [
        {
          "internalType": "string",
          "name": "",
          "type": "string"
        }
      ],
      "stateMutability": "view",
      "type": "function",
      "constant": true
    },
    {
      "inputs": [
        {
          "internalType": "uint256",
          "name": "tokenId",
          "type": "uint256"
        }
      ],
      "name": "ownerOf",
      "outputs": [
        {
          "internalType": "address",
          "name": "",
          "type": "address"
        }
      ],
      "stateMutability": "view",
      "type": "function",
      "constant": true
    },
    {
      "inputs": [
        {
          "internalType": "address",
          "name": "from",
          "type": "address"
        },
        {
          "internalType": "address",
          "name": "to",
          "type": "address"
        },
        {
          "internalType": "uint256",
          "name": "tokenId",
          "type": "uint256"
        }
      ],
      "name": "safeTransferFrom",
      "outputs": [],
      "stateMutability": "nonpayable",
      "type": "function"
    },
    {
      "inputs": [
        {
          "internalType": "address",
          "name": "from",
          "type": "address"
        },
        {
          "internalType": "address",
          "name": "to",
          "type": "address"
        },
        {
          "internalType": "uint256",
          "name": "tokenId",
          "type": "uint256"
        },
        {
          "internalType": "bytes",
          "name": "data",
          "type": "bytes"
        }
      ],
      "name": "safeTransferFrom",
      "outputs": [],
      "stateMutability": "nonpayable",
      "type": "function"
    },
    {
      "inputs": [
        {
          "internalType": "address",
          "name": "operator",
          "type": "address"
        },
        {
          "internalType": "bool",
          "name": "approved",
          "type": "bool"
        }
      ],
      "name": "setApprovalForAll",
      "outputs": [],
      "stateMutability": "nonpayable",
      "type": "function"
    },
    {
      "inputs": [
        {
          "internalType": "bytes4",
          "name": "interfaceId",
          "type": "bytes4"
        }
      ],
      "name": "supportsInterface",
      "outputs": [
        {
          "internalType": "bool",
          "name": "",
          "type": "bool"
        }
      ],
      "stateMutability": "view",
      "type": "function",
      "constant": true
    },
    {
      "inputs": [],
      "name": "symbol",
      "outputs": [
        {
          "internalType": "string",
          "name": "",
          "type": "string"
        }
      ],
      "stateMutability": "view",
      "type": "function",
      "constant": true
    },
    {
      "inputs": [
        {
          "internalType": "uint256",
          "name": "tokenId",
          "type": "uint256"
        }
      ],
      "name": "tokenURI",
      "outputs": [
        {
          "internalType": "string",
          "name": "",
          "type": "string"
        }
      ],
      "stateMutability": "view",
      "type": "function",
      "constant": true
    },
    {
      "inputs": [
        {
          "internalType": "address",
          "name": "from",
          "type": "address"
        },
        {
          "internalType": "address",
          "name": "to",
          "type": "address"
        },
        {
          "internalType": "uint256",
          "name": "tokenId",
          "type": "uint256"
        }
      ],
      "name": "transferFrom",
      "outputs": [],
      "stateMutability": "nonpayable",
      "type": "function"
    },
    {
      "inputs": [
        {
          "internalType": "address",
          "name": "recipient",
          "type": "address"
        },
        {
          "internalType": "string",
          "name": "tokenURI",
          "type": "string"
        }
      ],
      "name": "mintNFT",
      "outputs": [
        {
          "internalType": "uint256",
          "name": "",
          "type": "uint256"
        }
      ],
      "stateMutability": "nonpayable",
      "type": "function"
    },
    {
      "inputs": [
        {
          "internalType": "uint256",
          "name": "tokenId",
          "type": "uint256"
        }
      ],
      "name": "getNFT",
      "outputs": [
        {
          "internalType": "address",
          "name": "owner",
          "type": "address"
        },
        {
          "internalType": "uint256",
          "name": "price",
          "type": "uint256"
        },
        {
          "internalType": "string",
          "name": "tokenURI",
          "type": "string"
        }
      ],
      "stateMutability": "view",
      "type": "function",
      "constant": true
    }
  ],
  "bytecode": "0x608060405234801562000010575f80fd5b506040518060400160405280600b81526020017f4e4654436f6e74726163740000000000000000000000000000000000000000008152506040518060400160405280600481526020017f4e46544300000000000000000000000000000000000000000000000000000000815250815f90816200008d91906200030c565b5080600190816200009f91906200030c565b505050620003f0565b5f81519050919050565b7f4e487b71000000000000000000000000000000000000000000000000000000005f52604160045260245ffd5b7f4e487b71000000000000000000000000000000000000000000000000000000005f52602260045260245ffd5b5f60028204905060018216806200012457607f821691505b6020821081036200013a5762000139620000df565b5b50919050565b5f819050815f5260205f209050919050565b5f6020601f8301049050919050565b5f82821b905092915050565b5f600883026200019e7fffffffffffffffffffffffffffffffffffffffffffffffffffffffffffffffff8262000161565b620001aa868362000161565b95508019841693508086168417925050509392505050565b5f819050919050565b5f819050919050565b5f620001f4620001ee620001e884620001c2565b620001cb565b620001c2565b9050919050565b5f819050919050565b6200020f83620001d4565b620002276200021e82620001fb565b8484546200016d565b825550505050565b5f90565b6200023d6200022f565b6200024a81848462000204565b505050565b5b818110156200027157620002655f8262000233565b60018101905062000250565b5050565b601f821115620002c0576200028a8162000140565b620002958462000152565b81016020851015620002a5578190505b620002bd620002b48562000152565b8301826200024f565b50505b505050565b5f82821c905092915050565b5f620002e25f1984600802620002c5565b1980831691505092915050565b5f620002fc8383620002d1565b9150826002028217905092915050565b6200031782620000a8565b67ffffffffffffffff811115620003335762000332620000b2565b5b6200033f82546200010c565b6200034c82828562000275565b5f60209050601f83116001811462000382575f84156200036d578287015190505b620003798582620002ef565b865550620003e8565b601f198416620003928662000140565b5f5b82811015620003bb5784890151825560018201915060208501945060208101905062000394565b86831015620003db5784890151620003d7601f891682620002d1565b8355505b6001600288020188555050505b505050505050565b612c9c80620003fe5f395ff3fe608060405234801561000f575f80fd5b50600436106100f3575f3560e01c80636352211e11610095578063b88d4fde11610064578063b88d4fde14610295578063c87b56dd146102b1578063e985e9c5146102e1578063eacabe1414610311576100f3565b80636352211e146101fb57806370a082311461022b57806395d89b411461025b578063a22cb46514610279576100f3565b8063095ea7b3116100d1578063095ea7b31461017557806323b872dd1461019157806342842e0e146101ad578063576f7ea7146101c9576100f3565b806301ffc9a7146100f757806306fdde0314610127578063081812fc14610145575b5f80fd5b610111600480360381019061010c9190611b71565b610341565b60405161011e9190611bb6565b60405180910390f35b61012f6103a1565b60405161013c9190611c59565b60405180910390f35b61015f600480360381019061015a9190611cac565b610430565b60405161016c9190611d16565b60405180910390f35b61018f600480360381019061018a9190611d59565b610472565b005b6101ab60048036038101906101a69190611d97565b610588565b005b6101c760048036038101906101c29190611d97565b6105e8565b005b6101e360048036038101906101de9190611cac565b610607565b6040516101f293929190611df6565b60405180910390f35b61021560048036038101906102109190611cac565b61072b565b6040516102229190611d16565b60405180910390f35b61024560048036038101906102409190611e32565b6107af565b6040516102529190611e5d565b60405180910390f35b610263610863565b6040516102709190611c59565b60405180910390f35b610293600480360381019061028e9190611ea0565b6108f3565b005b6102af60048036038101906102aa919061200a565b610909565b005b6102cb60048036038101906102c69190611cac565b61096b565b6040516102d89190611c59565b60405180910390f35b6102fb60048036038101906102f6919061208a565b610a75565b6040516103089190611bb6565b60405180910390f35b61032b60048036038101906103269190612166565b610b03565b6040516103389190611e5d565b60405180910390f35b5f634906490660e01b7bffffffffffffffffffffffffffffffffffffffffffffffffffffffff1916827bffffffffffffffffffffffffffffffffffffffffffffffffffffffff1916148061039a575061039982610be2565b5b9050919050565b60605f80546103af906121ed565b80601f01602080910402602001604051908101604052809291908181526020018280546103db906121ed565b80156104265780601f106103fd57610100808354040283529160200191610426565b820191905f5260205f20905b81548152906001019060200180831161040957829003601f168201915b5050505050905090565b5f61043a82610cc3565b60045f8381526020019081526020015f205f9054906101000a900473ffffffffffffffffffffffffffffffffffffffff169050919050565b5f61047c8261072b565b90508073ffffffffffffffffffffffffffffffffffffffff168373ffffffffffffffffffffffffffffffffffffffff16036104ec576040517f08c379a00000000000000000000000000000000000000000000000000000000081526004016104e39061228d565b60405180910390fd5b8073ffffffffffffffffffffffffffffffffffffffff1661050b610d0e565b73ffffffffffffffffffffffffffffffffffffffff16148061053a575061053981610534610d0e565b610a75565b5b610579576040517f08c379a00000000000000000000000000000000000000000000000000000000081526004016105709061231b565b60405180910390fd5b6105838383610d15565b505050565b610599610593610d0e565b82610dcb565b6105d8576040517f08c379a00000000000000000000000000000000000000000000000000000000081526004016105cf906123a9565b60405180910390fd5b6105e3838383610e5f565b505050565b61060283838360405180602001604052805f815250610909565b505050565b5f8060606106148461114b565b610653576040517f08c379a000000000000000000000000000000000000000000000000000000000815260040161064a90612411565b60405180910390fd5b5f60085f8681526020019081526020015f209050805f015f9054906101000a900473ffffffffffffffffffffffffffffffffffffffff1681600101548260020180805461069f906121ed565b80601f01602080910402602001604051908101604052809291908181526020018280546106cb906121ed565b80156107165780601f106106ed57610100808354040283529160200191610716565b820191905f5260205f20905b8154815290600101906020018083116106f957829003601f168201915b50505050509050935093509350509193909250565b5f806107368361118b565b90505f73ffffffffffffffffffffffffffffffffffffffff168173ffffffffffffffffffffffffffffffffffffffff16036107a6576040517f08c379a000000000000000000000000000000000000000000000000000000000815260040161079d90612479565b60405180910390fd5b80915050919050565b5f8073ffffffffffffffffffffffffffffffffffffffff168273ffffffffffffffffffffffffffffffffffffffff160361081e576040517f08c379a000000000000000000000000000000000000000000000000000000000815260040161081590612507565b60405180910390fd5b60035f8373ffffffffffffffffffffffffffffffffffffffff1673ffffffffffffffffffffffffffffffffffffffff1681526020019081526020015f20549050919050565b606060018054610872906121ed565b80601f016020809104026020016040519081016040528092919081815260200182805461089e906121ed565b80156108e95780601f106108c0576101008083540402835291602001916108e9565b820191905f5260205f20905b8154815290600101906020018083116108cc57829003601f168201915b5050505050905090565b6109056108fe610d0e565b83836111c4565b5050565b61091a610914610d0e565b83610dcb565b610959576040517f08c379a0000000000000000000000000000000000000000000000000000000008152600401610950906123a9565b60405180910390fd5b6109658484848461132b565b50505050565b606061097682610cc3565b5f60065f8481526020019081526020015f208054610993906121ed565b80601f01602080910402602001604051908101604052809291908181526020018280546109bf906121ed565b8015610a0a5780601f106109e157610100808354040283529160200191610a0a565b820191905f5260205f20905b8154815290600101906020018083116109ed57829003601f168201915b505050505090505f610a1a611387565b90505f815103610a2e578192505050610a70565b5f82511115610a62578082604051602001610a4a92919061255f565b60405160208183030381529060405292505050610a70565b610a6b8461139d565b925050505b919050565b5f60055f8473ffffffffffffffffffffffffffffffffffffffff1673ffffffffffffffffffffffffffffffffffffffff1681526020019081526020015f205f8373ffffffffffffffffffffffffffffffffffffffff1673ffffffffffffffffffffffffffffffffffffffff1681526020019081526020015f205f9054906101000a900460ff16905092915050565b5f610b0e6007611402565b5f610b196007611416565b9050610b258482611422565b610b2f8184611635565b60405180606001604052808573ffffffffffffffffffffffffffffffffffffffff1681526020015f81526020018481525060085f8381526020019081526020015f205f820151815f015f6101000a81548173ffffffffffffffffffffffffffffffffffffffff021916908373ffffffffffffffffffffffffffffffffffffffff160217905550602082015181600101556040820151816002019081610bd4919061271f565b509050508091505092915050565b5f7f80ac58cd000000000000000000000000000000000000000000000000000000007bffffffffffffffffffffffffffffffffffffffffffffffffffffffff1916827bffffffffffffffffffffffffffffffffffffffffffffffffffffffff19161480610cac57507f5b5e139f000000000000000000000000000000000000000000000000000000007bffffffffffffffffffffffffffffffffffffffffffffffffffffffff1916827bffffffffffffffffffffffffffffffffffffffffffffffffffffffff1916145b80610cbc5750610cbb826116d7565b5b9050919050565b610ccc8161114b565b610d0b576040517f08c379a0000000000000000000000000000000000000000000000000000000008152600401610d0290612479565b60405180910390fd5b50565b5f33905090565b8160045f8381526020019081526020015f205f6101000a81548173ffffffffffffffffffffffffffffffffffffffff021916908373ffffffffffffffffffffffffffffffffffffffff160217905550808273ffffffffffffffffffffffffffffffffffffffff16610d858361072b565b73ffffffffffffffffffffffffffffffffffffffff167f8c5be1e5ebec7d5bd14f71427d1e84f3dd0314c0f7b2291e5b200ac8c7c3b92560405160405180910390a45050565b5f80610dd68361072b565b90508073ffffffffffffffffffffffffffffffffffffffff168473ffffffffffffffffffffffffffffffffffffffff161480610e185750610e178185610a75565b5b80610e5657508373ffffffffffffffffffffffffffffffffffffffff16610e3e84610430565b73ffffffffffffffffffffffffffffffffffffffff16145b91505092915050565b8273ffffffffffffffffffffffffffffffffffffffff16610e7f8261072b565b73ffffffffffffffffffffffffffffffffffffffff1614610ed5576040517f08c379a0000000000000000000000000000000000000000000000000000000008152600401610ecc9061285e565b60405180910390fd5b5f73ffffffffffffffffffffffffffffffffffffffff168273ffffffffffffffffffffffffffffffffffffffff1603610f43576040517f08c379a0000000000000000000000000000000000000000000000000000000008152600401610f3a906128ec565b60405180910390fd5b610f508383836001611740565b8273ffffffffffffffffffffffffffffffffffffffff16610f708261072b565b73ffffffffffffffffffffffffffffffffffffffff1614610fc6576040517f08c379a0000000000000000000000000000000000000000000000000000000008152600401610fbd9061285e565b60405180910390fd5b60045f8281526020019081526020015f205f6101000a81549073ffffffffffffffffffffffffffffffffffffffff0219169055600160035f8573ffffffffffffffffffffffffffffffffffffffff1673ffffffffffffffffffffffffffffffffffffffff1681526020019081526020015f205f8282540392505081905550600160035f8473ffffffffffffffffffffffffffffffffffffffff1673ffffffffffffffffffffffffffffffffffffffff1681526020019081526020015f205f82825401925050819055508160025f8381526020019081526020015f205f6101000a81548173ffffffffffffffffffffffffffffffffffffffff021916908373ffffffffffffffffffffffffffffffffffffffff160217905550808273ffffffffffffffffffffffffffffffffffffffff168473ffffffffffffffffffffffffffffffffffffffff167fddf252ad1be2c89b69c2b068fc378daa952ba7f163c4a11628f55a4df523b3ef60405160405180910390a46111468383836001611746565b505050565b5f8073ffffffffffffffffffffffffffffffffffffffff1661116c8361118b565b73ffffffffffffffffffffffffffffffffffffffff1614159050919050565b5f60025f8381526020019081526020015f205f9054906101000a900473ffffffffffffffffffffffffffffffffffffffff169050919050565b8173ffffffffffffffffffffffffffffffffffffffff168373ffffffffffffffffffffffffffffffffffffffff1603611232576040517f08c379a000000000000000000000000000000000000000000000000000000000815260040161122990612954565b60405180910390fd5b8060055f8573ffffffffffffffffffffffffffffffffffffffff1673ffffffffffffffffffffffffffffffffffffffff1681526020019081526020015f205f8473ffffffffffffffffffffffffffffffffffffffff1673ffffffffffffffffffffffffffffffffffffffff1681526020019081526020015f205f6101000a81548160ff0219169083151502179055508173ffffffffffffffffffffffffffffffffffffffff168373ffffffffffffffffffffffffffffffffffffffff167f17307eab39ab6107e8899845ad3d59bd9653f200f220920489ca2b5937696c318360405161131e9190611bb6565b60405180910390a3505050565b611336848484610e5f565b6113428484848461174c565b611381576040517f08c379a0000000000000000000000000000000000000000000000000000000008152600401611378906129e2565b60405180910390fd5b50505050565b606060405180602001604052805f815250905090565b60606113a882610cc3565b5f6113b1611387565b90505f8151116113cf5760405180602001604052805f8152506113fa565b806113d9846118ce565b6040516020016113ea92919061255f565b6040516020818303038152906040525b915050919050565b6001815f015f828254019250508190555050565b5f815f01549050919050565b5f73ffffffffffffffffffffffffffffffffffffffff168273ffffffffffffffffffffffffffffffffffffffff1603611490576040517f08c379a000000000000000000000000000000000000000000000000000000000815260040161148790612a4a565b60405180910390fd5b6114998161114b565b156114d9576040517f08c379a00000000000000000000000000000000000000000000000000000000081526004016114d090612ab2565b60405180910390fd5b6114e65f83836001611740565b6114ef8161114b565b1561152f576040517f08c379a000000000000000000000000000000000000000000000000000000000815260040161152690612ab2565b60405180910390fd5b600160035f8473ffffffffffffffffffffffffffffffffffffffff1673ffffffffffffffffffffffffffffffffffffffff1681526020019081526020015f205f82825401925050819055508160025f8381526020019081526020015f205f6101000a81548173ffffffffffffffffffffffffffffffffffffffff021916908373ffffffffffffffffffffffffffffffffffffffff160217905550808273ffffffffffffffffffffffffffffffffffffffff165f73ffffffffffffffffffffffffffffffffffffffff167fddf252ad1be2c89b69c2b068fc378daa952ba7f163c4a11628f55a4df523b3ef60405160405180910390a46116315f83836001611746565b5050565b61163e8261114b565b61167d576040517f08c379a000000000000000000000000000000000000000000000000000000000815260040161167490612b40565b60405180910390fd5b8060065f8481526020019081526020015f20908161169b919061271f565b507ff8e1a15aba9398e019f0b49df1a4fde98ee17ae345cb5f6b5e2c27f5033e8ce7826040516116cb9190611e5d565b60405180910390a15050565b5f7f01ffc9a7000000000000000000000000000000000000000000000000000000007bffffffffffffffffffffffffffffffffffffffffffffffffffffffff1916827bffffffffffffffffffffffffffffffffffffffffffffffffffffffff1916149050919050565b50505050565b50505050565b5f61176c8473ffffffffffffffffffffffffffffffffffffffff16611998565b156118c1578373ffffffffffffffffffffffffffffffffffffffff1663150b7a02611795610d0e565b8786866040518563ffffffff1660e01b81526004016117b79493929190612bb0565b6020604051808303815f875af19250505080156117f257506040513d601f19601f820116820180604052508101906117ef9190612c0e565b60015b611871573d805f8114611820576040519150601f19603f3d011682016040523d82523d5f602084013e611825565b606091505b505f815103611869576040517f08c379a0000000000000000000000000000000000000000000000000000000008152600401611860906129e2565b60405180910390fd5b805181602001fd5b63150b7a0260e01b7bffffffffffffffffffffffffffffffffffffffffffffffffffffffff1916817bffffffffffffffffffffffffffffffffffffffffffffffffffffffff1916149150506118c6565b600190505b949350505050565b60605f60016118dc846119ba565b0190505f8167ffffffffffffffff8111156118fa576118f9611ee6565b5b6040519080825280601f01601f19166020018201604052801561192c5781602001600182028036833780820191505090505b5090505f82602001820190505b60011561198d578080600190039150507f3031323334353637383961626364656600000000000000000000000000000000600a86061a8153600a858161198257611981612c39565b5b0494505f8503611939575b819350505050919050565b5f808273ffffffffffffffffffffffffffffffffffffffff163b119050919050565b5f805f90507a184f03e93ff9f4daa797ed6e38ed64bf6a1f0100000000000000008310611a16577a184f03e93ff9f4daa797ed6e38ed64bf6a1f0100000000000000008381611a0c57611a0b612c39565b5b0492506040810190505b6d04ee2d6d415b85acef81000000008310611a53576d04ee2d6d415b85acef81000000008381611a4957611a48612c39565b5b0492506020810190505b662386f26fc100008310611a8257662386f26fc100008381611a7857611a77612c39565b5b0492506010810190505b6305f5e1008310611aab576305f5e1008381611aa157611aa0612c39565b5b0492506008810190505b6127108310611ad0576127108381611ac657611ac5612c39565b5b0492506004810190505b60648310611af35760648381611ae957611ae8612c39565b5b0492506002810190505b600a8310611b02576001810190505b80915050919050565b5f604051905090565b5f80fd5b5f80fd5b5f7fffffffff0000000000000000000000000000000000000000000000000000000082169050919050565b611b5081611b1c565b8114611b5a575f80fd5b50565b5f81359050611b6b81611b47565b92915050565b5f60208284031215611b8657611b85611b14565b5b5f611b9384828501611b5d565b91505092915050565b5f8115159050919050565b611bb081611b9c565b82525050565b5f602082019050611bc95f830184611ba7565b92915050565b5f81519050919050565b5f82825260208201905092915050565b5f5b83811015611c06578082015181840152602081019050611beb565b5f8484015250505050565b5f601f19601f8301169050919050565b5f611c2b82611bcf565b611c358185611bd9565b9350611c45818560208601611be9565b611c4e81611c11565b840191505092915050565b5f6020820190508181035f830152611c718184611c21565b905092915050565b5f819050919050565b611c8b81611c79565b8114611c95575f80fd5b50565b5f81359050611ca681611c82565b92915050565b5f60208284031215611cc157611cc0611b14565b5b5f611cce84828501611c98565b91505092915050565b5f73ffffffffffffffffffffffffffffffffffffffff82169050919050565b5f611d0082611cd7565b9050919050565b611d1081611cf6565b82525050565b5f602082019050611d295f830184611d07565b92915050565b611d3881611cf6565b8114611d42575f80fd5b50565b5f81359050611d5381611d2f565b92915050565b5f8060408385031215611d6f57611d6e611b14565b5b5f611d7c85828601611d45565b9250506020611d8d85828601611c98565b9150509250929050565b5f805f60608486031215611dae57611dad611b14565b5b5f611dbb86828701611d45565b9350506020611dcc86828701611d45565b9250506040611ddd86828701611c98565b9150509250925092565b611df081611c79565b82525050565b5f606082019050611e095f830186611d07565b611e166020830185611de7565b8181036040830152611e288184611c21565b9050949350505050565b5f60208284031215611e4757611e46611b14565b5b5f611e5484828501611d45565b91505092915050565b5f602082019050611e705f830184611de7565b92915050565b611e7f81611b9c565b8114611e89575f80fd5b50565b5f81359050611e9a81611e76565b92915050565b5f8060408385031215611eb657611eb5611b14565b5b5f611ec385828601611d45565b9250506020611ed485828601611e8c565b9150509250929050565b5f80fd5b5f80fd5b7f4e487b71000000000000000000000000000000000000000000000000000000005f52604160045260245ffd5b611f1c82611c11565b810181811067ffffffffffffffff82111715611f3b57611f3a611ee6565b5b80604052505050565b5f611f4d611b0b565b9050611f598282611f13565b919050565b5f67ffffffffffffffff821115611f7857611f77611ee6565b5b611f8182611c11565b9050602081019050919050565b828183375f83830152505050565b5f611fae611fa984611f5e565b611f44565b905082815260208101848484011115611fca57611fc9611ee2565b5b611fd5848285611f8e565b509392505050565b5f82601f830112611ff157611ff0611ede565b5b8135612001848260208601611f9c565b91505092915050565b5f805f806080858703121561202257612021611b14565b5b5f61202f87828801611d45565b945050602061204087828801611d45565b935050604061205187828801611c98565b925050606085013567ffffffffffffffff81111561207257612071611b18565b5b61207e87828801611fdd565b91505092959194509250565b5f80604083850312156120a05761209f611b14565b5b5f6120ad85828601611d45565b92505060206120be85828601611d45565b9150509250929050565b5f67ffffffffffffffff8211156120e2576120e1611ee6565b5b6120eb82611c11565b9050602081019050919050565b5f61210a612105846120c8565b611f44565b90508281526020810184848401111561212657612125611ee2565b5b612131848285611f8e565b509392505050565b5f82601f83011261214d5761214c611ede565b5b813561215d8482602086016120f8565b91505092915050565b5f806040838503121561217c5761217b611b14565b5b5f61218985828601611d45565b925050602083013567ffffffffffffffff8111156121aa576121a9611b18565b5b6121b685828601612139565b9150509250929050565b7f4e487b71000000000000000000000000000000000000000000000000000000005f52602260045260245ffd5b5f600282049050600182168061220457607f821691505b602082108103612217576122166121c0565b5b50919050565b7f4552433732313a20617070726f76616c20746f2063757272656e74206f776e655f8201527f7200000000000000000000000000000000000000000000000000000000000000602082015250565b5f612277602183611bd9565b91506122828261221d565b604082019050919050565b5f6020820190508181035f8301526122a48161226b565b9050919050565b7f4552433732313a20617070726f76652063616c6c6572206973206e6f7420746f5f8201527f6b656e206f776e6572206f7220617070726f76656420666f7220616c6c000000602082015250565b5f612305603d83611bd9565b9150612310826122ab565b604082019050919050565b5f6020820190508181035f830152612332816122f9565b9050919050565b7f4552433732313a2063616c6c6572206973206e6f7420746f6b656e206f776e655f8201527f72206f7220617070726f76656400000000000000000000000000000000000000602082015250565b5f612393602d83611bd9565b915061239e82612339565b604082019050919050565b5f6020820190508181035f8301526123c081612387565b9050919050565b7f4e465420646f6573206e6f7420657869737400000000000000000000000000005f82015250565b5f6123fb601283611bd9565b9150612406826123c7565b602082019050919050565b5f6020820190508181035f830152612428816123ef565b9050919050565b7f4552433732313a20696e76616c696420746f6b656e20494400000000000000005f82015250565b5f612463601883611bd9565b915061246e8261242f565b602082019050919050565b5f6020820190508181035f83015261249081612457565b9050919050565b7f4552433732313a2061646472657373207a65726f206973206e6f7420612076615f8201527f6c6964206f776e65720000000000000000000000000000000000000000000000602082015250565b5f6124f1602983611bd9565b91506124fc82612497565b604082019050919050565b5f6020820190508181035f83015261251e816124e5565b9050919050565b5f81905092915050565b5f61253982611bcf565b6125438185612525565b9350612553818560208601611be9565b80840191505092915050565b5f61256a828561252f565b9150612576828461252f565b91508190509392505050565b5f819050815f5260205f209050919050565b5f6020601f8301049050919050565b5f82821b905092915050565b5f600883026125de7fffffffffffffffffffffffffffffffffffffffffffffffffffffffffffffffff826125a3565b6125e886836125a3565b95508019841693508086168417925050509392505050565b5f819050919050565b5f61262361261e61261984611c79565b612600565b611c79565b9050919050565b5f819050919050565b61263c83612609565b6126506126488261262a565b8484546125af565b825550505050565b5f90565b612664612658565b61266f818484612633565b505050565b5b81811015612692576126875f8261265c565b600181019050612675565b5050565b601f8211156126d7576126a881612582565b6126b184612594565b810160208510156126c0578190505b6126d46126cc85612594565b830182612674565b50505b505050565b5f82821c905092915050565b5f6126f75f19846008026126dc565b1980831691505092915050565b5f61270f83836126e8565b9150826002028217905092915050565b61272882611bcf565b67ffffffffffffffff81111561274157612740611ee6565b5b61274b82546121ed565b612756828285612696565b5f60209050601f831160018114612787575f8415612775578287015190505b61277f8582612704565b8655506127e6565b601f19841661279586612582565b5f5b828110156127bc57848901518255600182019150602085019450602081019050612797565b868310156127d957848901516127d5601f8916826126e8565b8355505b6001600288020188555050505b505050505050565b7f4552433732313a207472616e736665722066726f6d20696e636f7272656374205f8201527f6f776e6572000000000000000000000000000000000000000000000000000000602082015250565b5f612848602583611bd9565b9150612853826127ee565b604082019050919050565b5f6020820190508181035f8301526128758161283c565b9050919050565b7f4552433732313a207472616e7366657220746f20746865207a65726f206164645f8201527f7265737300000000000000000000000000000000000000000000000000000000602082015250565b5f6128d6602483611bd9565b91506128e18261287c565b604082019050919050565b5f6020820190508181035f830152612903816128ca565b9050919050565b7f4552433732313a20617070726f766520746f2063616c6c6572000000000000005f82015250565b5f61293e601983611bd9565b91506129498261290a565b602082019050919050565b5f6020820190508181035f83015261296b81612932565b9050919050565b7f4552433732313a207472616e7366657220746f206e6f6e2045524337323152655f8201527f63656976657220696d706c656d656e7465720000000000000000000000000000602082015250565b5f6129cc603283611bd9565b91506129d782612972565b604082019050919050565b5f6020820190508181035f8301526129f9816129c0565b9050919050565b7f4552433732313a206d696e7420746f20746865207a65726f20616464726573735f82015250565b5f612a34602083611bd9565b9150612a3f82612a00565b602082019050919050565b5f6020820190508181035f830152612a6181612a28565b9050919050565b7f4552433732313a20746f6b656e20616c7265616479206d696e746564000000005f82015250565b5f612a9c601c83611bd9565b9150612aa782612a68565b602082019050919050565b5f6020820190508181035f830152612ac981612a90565b9050919050565b7f45524337323155524953746f726167653a2055524920736574206f66206e6f6e5f8201527f6578697374656e7420746f6b656e000000000000000000000000000000000000602082015250565b5f612b2a602e83611bd9565b9150612b3582612ad0565b604082019050919050565b5f6020820190508181035f830152612b5781612b1e565b9050919050565b5f81519050919050565b5f82825260208201905092915050565b5f612b8282612b5e565b612b8c8185612b68565b9350612b9c818560208601611be9565b612ba581611c11565b840191505092915050565b5f608082019050612bc35f830187611d07565b612bd06020830186611d07565b612bdd6040830185611de7565b8181036060830152612bef8184612b78565b905095945050505050565b5f81519050612c0881611b47565b92915050565b5f60208284031215612c2357612c22611b14565b5b5f612c3084828501612bfa565b91505092915050565b7f4e487b71000000000000000000000000000000000000000000000000000000005f52601260045260245ffdfea2646970667358221220179c7144fcc5d234bf192d73d6bd478ac2e204ed23dd7f3682e311794860a1aa64736f6c63430008140033",
  "immutableReferences": {},
  "source": "// SPDX-License-Identifier: UNLISENCED\npragma solidity ^0.8.0;\n\nimport \"@openzeppelin/contracts/token/ERC721/extensions/ERC721URIStorage.sol\";\nimport \"@openzeppelin/contracts/utils/Counters.sol\";\n\ncontract GoodsNFT is ERC721URIStorage {\n    using Counters for Counters.Counter;\n    Counters.Counter private _tokenIds;\n\n    struct NFT {\n        address owner;\n        uint256 price;\n        string tokenURI;\n    }\n\n    mapping(uint256 => NFT) private _nfts;\n\n    constructor() ERC721(\"NFTContract\", \"NFTC\") {}\n\n    function mintNFT(address recipient, string memory tokenURI) public returns (uint256) {\n        _tokenIds.increment();\n        uint256 newItemId = _tokenIds.current();\n        _mint(recipient, newItemId);\n        _setTokenURI(newItemId, tokenURI);\n        _nfts[newItemId] = NFT(recipient, 0, tokenURI);\n        return newItemId;\n    }\n\n    function getNFT(uint256 tokenId) public view returns (address owner, uint256 price, string memory tokenURI) {\n        require(_exists(tokenId), \"NFT does not exist\");\n        NFT storage nft = _nfts[tokenId];\n        return (nft.owner, nft.price, nft.tokenURI);\n    }\n}\n",
  "sourcePath": "/home/leonidas/Documents/Genuine_Goods_Coin/ethereum/contracts/GoodsNFT.sol",
  "compiler": {
    "name": "solc",
    "version": "0.8.20+commit.a1b79de6.Emscripten.clang"
  },
  "schemaVersion": "3.4.14",
  "updatedAt": "2023-06-10T00:51:44.812Z",
  "networkType": "ethereum",
  "devdoc": {
    "events": {
      "Approval(address,address,uint256)": {
        "details": "Emitted when `owner` enables `approved` to manage the `tokenId` token."
      },
      "ApprovalForAll(address,address,bool)": {
        "details": "Emitted when `owner` enables or disables (`approved`) `operator` to manage all of its assets."
      },
      "BatchMetadataUpdate(uint256,uint256)": {
        "details": "This event emits when the metadata of a range of tokens is changed. So that the third-party platforms such as NFT market could timely update the images and related attributes of the NFTs."
      },
      "MetadataUpdate(uint256)": {
        "details": "This event emits when the metadata of a token is changed. So that the third-party platforms such as NFT market could timely update the images and related attributes of the NFT."
      },
      "Transfer(address,address,uint256)": {
        "details": "Emitted when `tokenId` token is transferred from `from` to `to`."
      }
    },
    "kind": "dev",
    "methods": {
      "approve(address,uint256)": {
        "details": "See {IERC721-approve}."
      },
      "balanceOf(address)": {
        "details": "See {IERC721-balanceOf}."
      },
      "getApproved(uint256)": {
        "details": "See {IERC721-getApproved}."
      },
      "isApprovedForAll(address,address)": {
        "details": "See {IERC721-isApprovedForAll}."
      },
      "name()": {
        "details": "See {IERC721Metadata-name}."
      },
      "ownerOf(uint256)": {
        "details": "See {IERC721-ownerOf}."
      },
      "safeTransferFrom(address,address,uint256)": {
        "details": "See {IERC721-safeTransferFrom}."
      },
      "safeTransferFrom(address,address,uint256,bytes)": {
        "details": "See {IERC721-safeTransferFrom}."
      },
      "setApprovalForAll(address,bool)": {
        "details": "See {IERC721-setApprovalForAll}."
      },
      "supportsInterface(bytes4)": {
        "details": "See {IERC165-supportsInterface}"
      },
      "symbol()": {
        "details": "See {IERC721Metadata-symbol}."
      },
      "tokenURI(uint256)": {
        "details": "See {IERC721Metadata-tokenURI}."
      },
      "transferFrom(address,address,uint256)": {
        "details": "See {IERC721-transferFrom}."
      }
    },
    "version": 1
  },
  "userdoc": {
    "kind": "user",
    "methods": {},
    "version": 1
  }
}