{
  "contractName": "Market",
  "abi": [
    {
      "anonymous": false,
      "inputs": [
        {
          "indexed": false,
          "internalType": "uint256",
          "name": "listingId",
          "type": "uint256"
        },
        {
          "indexed": false,
          "internalType": "address",
          "name": "seller",
          "type": "address"
        }
      ],
      "name": "Cancel",
      "type": "event"
    },
    {
      "anonymous": false,
      "inputs": [
        {
          "indexed": false,
          "internalType": "uint256",
          "name": "listingId",
          "type": "uint256"
        },
        {
          "indexed": false,
          "internalType": "address",
          "name": "seller",
          "type": "address"
        },
        {
          "indexed": false,
          "internalType": "address",
          "name": "token",
          "type": "address"
        },
        {
          "indexed": false,
          "internalType": "uint256",
          "name": "tokenId",
          "type": "uint256"
        },
        {
          "indexed": false,
          "internalType": "uint256",
          "name": "price",
          "type": "uint256"
        }
      ],
      "name": "Listed",
      "type": "event"
    },
    {
      "anonymous": false,
      "inputs": [
        {
          "indexed": false,
          "internalType": "uint256",
          "name": "listingId",
          "type": "uint256"
        },
        {
          "indexed": false,
          "internalType": "address",
          "name": "buyer",
          "type": "address"
        },
        {
          "indexed": false,
          "internalType": "address",
          "name": "token",
          "type": "address"
        },
        {
          "indexed": false,
          "internalType": "uint256",
          "name": "tokenId",
          "type": "uint256"
        },
        {
          "indexed": false,
          "internalType": "uint256",
          "name": "price",
          "type": "uint256"
        }
      ],
      "name": "Sale",
      "type": "event"
    },
    {
      "inputs": [
        {
          "internalType": "uint256",
          "name": "",
          "type": "uint256"
        }
      ],
      "name": "tokensOnSale",
      "outputs": [
        {
          "internalType": "enum Market.ListingStatus",
          "name": "status",
          "type": "uint8"
        },
        {
          "internalType": "address",
          "name": "seller",
          "type": "address"
        },
        {
          "internalType": "address",
          "name": "token",
          "type": "address"
        },
        {
          "internalType": "uint256",
          "name": "tokenId",
          "type": "uint256"
        },
        {
          "internalType": "uint256",
          "name": "price",
          "type": "uint256"
        }
      ],
      "stateMutability": "view",
      "type": "function",
      "constant": true
    },
    {
      "inputs": [
        {
          "internalType": "address",
          "name": "token",
          "type": "address"
        },
        {
          "internalType": "uint256",
          "name": "tokenId",
          "type": "uint256"
        },
        {
          "internalType": "uint256",
          "name": "price",
          "type": "uint256"
        }
      ],
      "name": "listToken",
      "outputs": [],
      "stateMutability": "nonpayable",
      "type": "function"
    },
    {
      "inputs": [
        {
          "internalType": "uint256",
          "name": "listingId",
          "type": "uint256"
        }
      ],
      "name": "getListing",
      "outputs": [
        {
          "components": [
            {
              "internalType": "enum Market.ListingStatus",
              "name": "status",
              "type": "uint8"
            },
            {
              "internalType": "address",
              "name": "seller",
              "type": "address"
            },
            {
              "internalType": "address",
              "name": "token",
              "type": "address"
            },
            {
              "internalType": "uint256",
              "name": "tokenId",
              "type": "uint256"
            },
            {
              "internalType": "uint256",
              "name": "price",
              "type": "uint256"
            }
          ],
          "internalType": "struct Market.Listing",
          "name": "",
          "type": "tuple"
        }
      ],
      "stateMutability": "view",
      "type": "function",
      "constant": true
    },
    {
      "inputs": [
        {
          "internalType": "uint256",
          "name": "listingId",
          "type": "uint256"
        }
      ],
      "name": "buyToken",
      "outputs": [],
      "stateMutability": "payable",
      "type": "function",
      "payable": true
    },
    {
      "inputs": [
        {
          "internalType": "uint256",
          "name": "listingId",
          "type": "uint256"
        }
      ],
      "name": "cancel",
      "outputs": [],
      "stateMutability": "nonpayable",
      "type": "function"
    },
    {
      "inputs": [],
      "name": "getTokensOnSale",
      "outputs": [
        {
          "components": [
            {
              "internalType": "enum Market.ListingStatus",
              "name": "status",
              "type": "uint8"
            },
            {
              "internalType": "address",
              "name": "seller",
              "type": "address"
            },
            {
              "internalType": "address",
              "name": "token",
              "type": "address"
            },
            {
              "internalType": "uint256",
              "name": "tokenId",
              "type": "uint256"
            },
            {
              "internalType": "uint256",
              "name": "price",
              "type": "uint256"
            }
          ],
          "internalType": "struct Market.Listing[]",
          "name": "",
          "type": "tuple[]"
        }
      ],
      "stateMutability": "view",
      "type": "function",
      "constant": true
    }
  ],
  "bytecode": "0x60806040525f600155348015610013575f80fd5b506113d6806100215f395ff3fe608060405260043610610054575f3560e01c8063107a274a146100585780632d296bf114610094578063308b4c97146100b057806340e58ee5146100f057806379b52af0146101185780637e07590d14610142575b5f80fd5b348015610063575f80fd5b5061007e60048036038101906100799190610d3e565b61016a565b60405161008b9190610e90565b60405180910390f35b6100ae60048036038101906100a99190610d3e565b61028c565b005b3480156100bb575f80fd5b506100d660048036038101906100d19190610d3e565b610582565b6040516100e7959493929190610ed6565b60405180910390f35b3480156100fb575f80fd5b5061011660048036038101906101119190610d3e565b61060c565b005b348015610123575f80fd5b5061012c610842565b6040516101399190611035565b60405180910390f35b34801561014d575f80fd5b506101686004803603810190610163919061107f565b610994565b005b610172610c9f565b60025f8381526020019081526020015f206040518060a00160405290815f82015f9054906101000a900460ff1660028111156101b1576101b0610d69565b5b60028111156101c3576101c2610d69565b5b81526020015f820160019054906101000a900473ffffffffffffffffffffffffffffffffffffffff1673ffffffffffffffffffffffffffffffffffffffff1673ffffffffffffffffffffffffffffffffffffffff168152602001600182015f9054906101000a900473ffffffffffffffffffffffffffffffffffffffff1673ffffffffffffffffffffffffffffffffffffffff1673ffffffffffffffffffffffffffffffffffffffff168152602001600282015481526020016003820154815250509050919050565b5f60025f8381526020019081526020015f209050805f0160019054906101000a900473ffffffffffffffffffffffffffffffffffffffff1673ffffffffffffffffffffffffffffffffffffffff163373ffffffffffffffffffffffffffffffffffffffff1603610331576040517f08c379a000000000000000000000000000000000000000000000000000000000815260040161032890611129565b60405180910390fd5b5f600281111561034457610343610d69565b5b815f015f9054906101000a900460ff16600281111561036657610365610d69565b5b146103a6576040517f08c379a000000000000000000000000000000000000000000000000000000000815260040161039d90611191565b60405180910390fd5b80600301543410156103ed576040517f08c379a00000000000000000000000000000000000000000000000000000000081526004016103e4906111f9565b60405180910390fd5b6001815f015f6101000a81548160ff0219169083600281111561041357610412610d69565b5b0217905550806001015f9054906101000a900473ffffffffffffffffffffffffffffffffffffffff1673ffffffffffffffffffffffffffffffffffffffff166323b872dd303384600201546040518463ffffffff1660e01b815260040161047c93929190611217565b5f604051808303815f87803b158015610493575f80fd5b505af11580156104a5573d5f803e3d5ffd5b50505050805f0160019054906101000a900473ffffffffffffffffffffffffffffffffffffffff1673ffffffffffffffffffffffffffffffffffffffff166108fc826003015490811502906040515f60405180830381858888f19350505050158015610513573d5f803e3d5ffd5b507ff3debaf22196a6ddf52a60fa71058cd7edf5e25bb98f4e96c994a5d4a9b0dd3e8233836001015f9054906101000a900473ffffffffffffffffffffffffffffffffffffffff168460020154856003015460405161057695949392919061124c565b60405180910390a15050565b5f8181548110610590575f80fd5b905f5260205f2090600402015f91509050805f015f9054906101000a900460ff1690805f0160019054906101000a900473ffffffffffffffffffffffffffffffffffffffff1690806001015f9054906101000a900473ffffffffffffffffffffffffffffffffffffffff16908060020154908060030154905085565b5f60025f8381526020019081526020015f209050805f0160019054906101000a900473ffffffffffffffffffffffffffffffffffffffff1673ffffffffffffffffffffffffffffffffffffffff163373ffffffffffffffffffffffffffffffffffffffff16146106b1576040517f08c379a00000000000000000000000000000000000000000000000000000000081526004016106a8906112e7565b60405180910390fd5b5f60028111156106c4576106c3610d69565b5b815f015f9054906101000a900460ff1660028111156106e6576106e5610d69565b5b14610726576040517f08c379a000000000000000000000000000000000000000000000000000000000815260040161071d90611191565b60405180910390fd5b6002815f015f6101000a81548160ff0219169083600281111561074c5761074b610d69565b5b0217905550806001015f9054906101000a900473ffffffffffffffffffffffffffffffffffffffff1673ffffffffffffffffffffffffffffffffffffffff166323b872dd303384600201546040518463ffffffff1660e01b81526004016107b593929190611217565b5f604051808303815f87803b1580156107cc575f80fd5b505af11580156107de573d5f803e3d5ffd5b505050507f8dd3c361eb2366ff27c2db0eb07b9261f1d052570742ab8c9a0c326f37aa576d82825f0160019054906101000a900473ffffffffffffffffffffffffffffffffffffffff16604051610836929190611305565b60405180910390a15050565b60605f805480602002602001604051908101604052809291908181526020015f905b8282101561098b578382905f5260205f2090600402016040518060a00160405290815f82015f9054906101000a900460ff1660028111156108a8576108a7610d69565b5b60028111156108ba576108b9610d69565b5b81526020015f820160019054906101000a900473ffffffffffffffffffffffffffffffffffffffff1673ffffffffffffffffffffffffffffffffffffffff1673ffffffffffffffffffffffffffffffffffffffff168152602001600182015f9054906101000a900473ffffffffffffffffffffffffffffffffffffffff1673ffffffffffffffffffffffffffffffffffffffff1673ffffffffffffffffffffffffffffffffffffffff1681526020016002820154815260200160038201548152505081526020019060010190610864565b50505050905090565b8273ffffffffffffffffffffffffffffffffffffffff166323b872dd3330856040518463ffffffff1660e01b81526004016109d193929190611217565b5f604051808303815f87803b1580156109e8575f80fd5b505af11580156109fa573d5f803e3d5ffd5b505050505f6040518060a001604052805f6002811115610a1d57610a1c610d69565b5b81526020013373ffffffffffffffffffffffffffffffffffffffff1681526020018573ffffffffffffffffffffffffffffffffffffffff16815260200184815260200183815250905060015f815480929190610a7890611359565b91905055508060025f60015481526020019081526020015f205f820151815f015f6101000a81548160ff02191690836002811115610ab957610ab8610d69565b5b02179055506020820151815f0160016101000a81548173ffffffffffffffffffffffffffffffffffffffff021916908373ffffffffffffffffffffffffffffffffffffffff1602179055506040820151816001015f6101000a81548173ffffffffffffffffffffffffffffffffffffffff021916908373ffffffffffffffffffffffffffffffffffffffff16021790555060608201518160020155608082015181600301559050507f723f73331eaee88eec7fc68ef60ab6ed15e4b90d0472b55eb92fa43910bab6dd60015433868686604051610b9a95949392919061124c565b60405180910390a15f81908060018154018082558091505060019003905f5260205f2090600402015f909190919091505f820151815f015f6101000a81548160ff02191690836002811115610bf257610bf1610d69565b5b02179055506020820151815f0160016101000a81548173ffffffffffffffffffffffffffffffffffffffff021916908373ffffffffffffffffffffffffffffffffffffffff1602179055506040820151816001015f6101000a81548173ffffffffffffffffffffffffffffffffffffffff021916908373ffffffffffffffffffffffffffffffffffffffff1602179055506060820151816002015560808201518160030155505050505050565b6040518060a001604052805f6002811115610cbd57610cbc610d69565b5b81526020015f73ffffffffffffffffffffffffffffffffffffffff1681526020015f73ffffffffffffffffffffffffffffffffffffffff1681526020015f81526020015f81525090565b5f80fd5b5f819050919050565b610d1d81610d0b565b8114610d27575f80fd5b50565b5f81359050610d3881610d14565b92915050565b5f60208284031215610d5357610d52610d07565b5b5f610d6084828501610d2a565b91505092915050565b7f4e487b71000000000000000000000000000000000000000000000000000000005f52602160045260245ffd5b60038110610da757610da6610d69565b5b50565b5f819050610db782610d96565b919050565b5f610dc682610daa565b9050919050565b610dd681610dbc565b82525050565b5f73ffffffffffffffffffffffffffffffffffffffff82169050919050565b5f610e0582610ddc565b9050919050565b610e1581610dfb565b82525050565b610e2481610d0b565b82525050565b60a082015f820151610e3e5f850182610dcd565b506020820151610e516020850182610e0c565b506040820151610e646040850182610e0c565b506060820151610e776060850182610e1b565b506080820151610e8a6080850182610e1b565b50505050565b5f60a082019050610ea35f830184610e2a565b92915050565b610eb281610dbc565b82525050565b610ec181610dfb565b82525050565b610ed081610d0b565b82525050565b5f60a082019050610ee95f830188610ea9565b610ef66020830187610eb8565b610f036040830186610eb8565b610f106060830185610ec7565b610f1d6080830184610ec7565b9695505050505050565b5f81519050919050565b5f82825260208201905092915050565b5f819050602082019050919050565b60a082015f820151610f645f850182610dcd565b506020820151610f776020850182610e0c565b506040820151610f8a6040850182610e0c565b506060820151610f9d6060850182610e1b565b506080820151610fb06080850182610e1b565b50505050565b5f610fc18383610f50565b60a08301905092915050565b5f602082019050919050565b5f610fe382610f27565b610fed8185610f31565b9350610ff883610f41565b805f5b8381101561102857815161100f8882610fb6565b975061101a83610fcd565b925050600181019050610ffb565b5085935050505092915050565b5f6020820190508181035f83015261104d8184610fd9565b905092915050565b61105e81610dfb565b8114611068575f80fd5b50565b5f8135905061107981611055565b92915050565b5f805f6060848603121561109657611095610d07565b5b5f6110a38682870161106b565b93505060206110b486828701610d2a565b92505060406110c586828701610d2a565b9150509250925092565b5f82825260208201905092915050565b7f53656c6c65722063616e6e6f74206265206275796572000000000000000000005f82015250565b5f6111136016836110cf565b915061111e826110df565b602082019050919050565b5f6020820190508181035f83015261114081611107565b9050919050565b7f4c697374696e67206973206e6f742061637469766500000000000000000000005f82015250565b5f61117b6015836110cf565b915061118682611147565b602082019050919050565b5f6020820190508181035f8301526111a88161116f565b9050919050565b7f496e73756666696369656e74207061796d656e740000000000000000000000005f82015250565b5f6111e36014836110cf565b91506111ee826111af565b602082019050919050565b5f6020820190508181035f830152611210816111d7565b9050919050565b5f60608201905061122a5f830186610eb8565b6112376020830185610eb8565b6112446040830184610ec7565b949350505050565b5f60a08201905061125f5f830188610ec7565b61126c6020830187610eb8565b6112796040830186610eb8565b6112866060830185610ec7565b6112936080830184610ec7565b9695505050505050565b7f4f6e6c792073656c6c65722063616e2063616e63656c206c697374696e6700005f82015250565b5f6112d1601e836110cf565b91506112dc8261129d565b602082019050919050565b5f6020820190508181035f8301526112fe816112c5565b9050919050565b5f6040820190506113185f830185610ec7565b6113256020830184610eb8565b9392505050565b7f4e487b71000000000000000000000000000000000000000000000000000000005f52601160045260245ffd5b5f61136382610d0b565b91507fffffffffffffffffffffffffffffffffffffffffffffffffffffffffffffffff82036113955761139461132c565b5b60018201905091905056fea26469706673582212200556068d7c22f826576a3a18f1468a2f6c7c2379bb22397eff2347452656590664736f6c63430008140033",
  "immutableReferences": {},
  "source": "// SPDX-License-Identifier: UNLISENCED\r\npragma solidity ^0.8.9;\r\n\r\nimport \"@openzeppelin/contracts/token/ERC721/IERC721.sol\";\r\n\r\n\r\n\r\ncontract Market {\r\n\tenum ListingStatus {\r\n\t\tActive,\r\n\t\tSold,\r\n\t\tCancelled\r\n\t}\r\n\r\n\r\n\tstruct Listing {\r\n\t\tListingStatus status;\r\n\t\taddress seller;\r\n\t\taddress token;\r\n\t\tuint tokenId;\r\n\t\tuint price;\r\n\t}\r\n\r\n\tevent Listed(\r\n\t\tuint listingId,\r\n\t\taddress seller,\r\n\t\taddress token,\r\n\t\tuint tokenId,\r\n\t\tuint price\r\n\t);\r\n\r\n\tevent Sale(\r\n\t\tuint listingId,\r\n\t\taddress buyer,\r\n\t\taddress token,\r\n\t\tuint tokenId,\r\n\t\tuint price\r\n\t);\r\n\r\n\tevent Cancel(\r\n\t\tuint listingId,\r\n\t\taddress seller\r\n\t);\r\n\r\n    // list of all sales\r\n    Listing[] public tokensOnSale;\r\n\r\n\tuint private _listingId = 0;\r\n\tmapping(uint => Listing) private _listings;\r\n\r\n\tfunction listToken(address token, uint tokenId, uint price) external {\r\n\t\tIERC721(token).transferFrom(msg.sender, address(this), tokenId);\r\n\r\n\r\n\t\tListing memory listing = Listing(\r\n\t\t\tListingStatus.Active,\r\n\t\t\tmsg.sender,\r\n\t\t\ttoken,\r\n\t\t\ttokenId,\r\n\t\t\tprice\r\n\t\t);\r\n\r\n\t\t_listingId++;\r\n\r\n\t\t_listings[_listingId] = listing;\r\n\r\n\t\temit Listed(\r\n\t\t\t_listingId,\r\n\t\t\tmsg.sender,\r\n\t\t\ttoken,\r\n\t\t\ttokenId,\r\n\t\t\tprice\r\n\t\t);\r\n\r\n        tokensOnSale.push(listing);\r\n\t}\r\n\r\n\tfunction getListing(uint listingId) public view returns (Listing memory) {\r\n\t\treturn _listings[listingId];\r\n\t}\r\n\r\n\tfunction buyToken(uint listingId) external payable {\r\n\t\tListing storage listing = _listings[listingId];\r\n\r\n\t\trequire(msg.sender != listing.seller, \"Seller cannot be buyer\");\r\n\t\trequire(listing.status == ListingStatus.Active, \"Listing is not active\");\r\n\r\n\t\trequire(msg.value >= listing.price, \"Insufficient payment\");\r\n\r\n\t\tlisting.status = ListingStatus.Sold;\r\n\r\n\t\tIERC721(listing.token).transferFrom(address(this), msg.sender, listing.tokenId);\r\n\t\tpayable(listing.seller).transfer(listing.price);\r\n\r\n\t\temit Sale(\r\n\t\t\tlistingId,\r\n\t\t\tmsg.sender,\r\n\t\t\tlisting.token,\r\n\t\t\tlisting.tokenId,\r\n\t\t\tlisting.price\r\n\t\t);\r\n\t}\r\n\r\n\tfunction cancel(uint listingId) public {\r\n\t\tListing storage listing = _listings[listingId];\r\n\r\n\t\trequire(msg.sender == listing.seller, \"Only seller can cancel listing\");\r\n\t\trequire(listing.status == ListingStatus.Active, \"Listing is not active\");\r\n\r\n\t\tlisting.status = ListingStatus.Cancelled;\r\n\t\r\n\t\tIERC721(listing.token).transferFrom(address(this), msg.sender, listing.tokenId);\r\n\r\n\t\temit Cancel(listingId, listing.seller);\r\n\t}\r\n\r\n    function getTokensOnSale() public view returns (Listing[] memory) {\r\n        return tokensOnSale;\r\n    }\r\n}\r\n",
  "sourcePath": "D:\\Dokumente\\Uni_Projekte\\Genuine_Goods_Coin\\Genuine_Goods_Coin\\ethereum\\contracts\\Market.sol",
  "compiler": {
    "name": "solc",
    "version": "0.8.20+commit.a1b79de6.Emscripten.clang"
  },
  "schemaVersion": "3.4.14",
  "updatedAt": "2023-06-11T20:32:22.035Z",
  "networkType": "ethereum",
  "devdoc": {
    "kind": "dev",
    "methods": {},
    "version": 1
  },
  "userdoc": {
    "kind": "user",
    "methods": {},
    "version": 1
  }
}